:020000040800F2
:10000000580800208901000883190008E916000833
:10001000811900088F0200088F20000800000000EE
:10002000000000000000000000000000E51D0008C6
:100030009102000800000000B51A0008E71D000842
:10004000A3010008A3010008A3010008A301000800
:10005000A3010008A3010008A3010008A3010008F0
:10006000A3010008A3010008A3010008A3010008E0
:10007000A3010008A3010008A3010008A3010008D0
:10008000A3010008A3010008A3010008A3010008C0
:10009000A3010008A3010008A3010008A3010008B0
:1000A000A3010008A3010008A3010008A3010008A0
:1000B000A30100084D1E0008A3010008A3010008C9
:1000C000A3010008A3010008A3010008B91A000851
:1000D000A3010008A3010008A3010008A301000870
:1000E000A3010008A3010008A301000800F002F822
:1000F00000F03AF80AA090E8000C82448344AAF188
:100100000107DA4501D100F02FF8AFF2090EBAE885
:100110000F0013F0010F18BFFB1A43F0010318473B
:10012000F42D0000142E0000103A24BF78C878C1C6
:10013000FAD8520724BF30C830C144BF04680C60ED
:10014000704700000023002400250026103A28BF35
:1001500078C1FBD8520728BF30C148BF0B60704739
:100160001FB51FBD10B510BD00F058F81146FFF7C0
:10017000F7FF01F0C7FF00F076F803B4FFF7F2FFD6
:1001800003BC00F07DF8000009488047094800479B
:10019000FEE7FEE7FEE7FEE7FEE7FEE7FEE7FEE737
:1001A000FEE7FEE704480549054A064B7047000094
:1001B000491E0008ED0000085802002058080020E1
:1001C00058040020580400204FF0000200B51346E8
:1001D00094469646203922BFA0E80C50A0E80C5067
:1001E000B1F12001BFF4F7AF090728BFA0E80C5018
:1001F00048BF0CC05DF804EB890028BF40F8042B11
:1002000008BF704748BF20F8022B11F0804F18BF7D
:1002100000F8012B7047704770477047754600F033
:100220002BF8AE4605006946534620F00700854688
:1002300018B020B5FFF7B6FFBDE820404FF000062C
:100240004FF000074FF000084FF0000B21F00701BE
:10025000AC46ACE8C009ACE8C009ACE8C009ACE801
:10026000C0098D46704710B50446AFF300802046A4
:10027000BDE81040FFF781BF00487047F40100203F
:1002800001491820ABBEFEE7260002007047FEE7DA
:10029000704710B5C821084601F00AFF322000F06F
:1002A00063F86421084601F003FF322000F05CF897
:1002B00001F0E8FF40F6C41000F056F84FF4167055
:1002C000014601F0F5FEBDE81040642000F04CB896
:1002D00010B590F821100024022903D00421816375
:1002E00001243DE001680A6822F00E020A600168FC
:1002F0000A6822F001020A601A4A0168914201D19B
:10030000012121E0174A1432914201D110211BE052
:10031000144A2832914201D1891515E0114A3C3224
:10032000914201D189140FE00E4A5032914202D11C
:100330004FF4803108E00B4A6432914202D14FF40D
:10034000801101E04FF08071064A083A51600121A6
:1003500080F82110002180F82010416B01B18847FE
:10036000204610BD0800024070B5044600F004F9B4
:100370000546601C02D004480078044400F0FCF8F4
:10038000401BA042FAD370BD6C0000202DE9F84F4D
:10039000DFF8B8910024A9F1040B23460F2709F1D7
:1003A000040AABF1040EC9E00125A5402A40AA4287
:1003B0007DD1674ED1F804C0ACEB0608B44532D00D
:1003C00014DCBCF1030F3AD009DCBCF1000F2AD0D9
:1003D000BCF1010F1CD0BCF1020F31D11DE0BCF10A
:1003E000110F17D0BCF1120F2AD119E0B8F5881FF0
:1003F00019D006DCB8F5803F15D0B8F5801F1FD1A5
:1004000011E0B8F5001F0ED0B8F5041F18D10AE0AE
:10041000CB6815E0CB681B1D12E0CB6808330FE0FA
:10042000CB680C330CE08B682BB1012B4FF0080329
:1004300003D0456104E0042302E0056100E00023ED
:10044000FF2A01D8064601E000F104064FEA8405C0
:1004500001D9A5F12005D6F8008007FA05FC28EAA5
:100460000C0803FA05F548EA0508C6F800804D684F
:10047000ED0062D5374DAE6946F00106AE61AD695B
:1004800024F0030605F001050095334D06EB050C3D
:10049000DCF80850A607360F07FA06F825EA080523
:1004A000DFF8B880404503D14FF0000817E044E082
:1004B000DFF8AC80404502D14FF001080FE0DFF8D3
:1004C000A480404502D14FF0020808E0DFF8988090
:1004D000404502D14FF0030801E04FF0040808FA4C
:1004E00006F848EA0508CCF808804D68D9F800609D
:1004F000ED024D4601D5164300E096432E604D684F
:10050000DAF80060AD02554601D5164300E0964387
:100510002E604D68DBF80060AD035D4601D51643E3
:1005200000E096432E604D68DEF80060ED037546EE
:1005300001D5164300E096432E60641C0D682A46E0
:10054000E5407FF431AFBDE8F88F000008040140BA
:10055000000011100010024000000140000801409E
:10056000000C014000100140001401400AB101617B
:1005700070470904FBE700000148806870470000ED
:100580006C00002002488168027811448160704745
:100590006C000020074810B5016841F010010160AF
:1005A000032000F075F80F2000F006F800F024F8A2
:1005B000002010BD0020024070B50D4D04464FF4E0
:1005C0007A712878B1FBF0F00A490968B1FBF0F0C4
:1005D00000F0B7FC48B9102C07D200222146501E6B
:1005E00000F036F800206C6070BD012070BD000086
:1005F0006C000020780000200C4808B5816941F0AB
:1006000001018161816901F001010091C16941F03D
:100610008051C161C06900F0805000900448416879
:1006200021F0E06141F00071416008BD001002401E
:1006300000000140002809DB00F01F020121914069
:100640004009800000F1E020C0F800117047000070
:10065000F0B40E4B1B680C46C3F30223C3F107052D
:10066000042D00D90425191D072901D2002300E01B
:10067000DB1E012606FA05F1491E214099409E40E5
:10068000761E16403143F0BC01F002BD0CED00E0D7
:10069000064900F0070208684FF6FF03184040EAD9
:1006A0000220034A10430860704700000CED00E090
:1006B0000000FA052DE9F0470F46050061D0434ED2
:1006C000306800F00700B84209D2306820F0070017
:1006D00038433060306800F00700B84251D12868D4
:1006E0003B4C810712D5400703D5606840F4E060B9
:1006F00060602878000703D5606840F4605060604F
:100700006068A96820F0F000084360602878C0079E
:1007100028D06868012810D02168022810D08907E5
:1007200000292EDA616821F0030101436160FFF7BF
:1007300023FF804641F288390DE021688903EFE705
:100740008901EDE7FFF718FFA0EB0801494502D941
:100750000320BDE8F0876068696800F00C00B0EB2A
:10076000810FEFD1306800F00700B8420BD9306834
:1007700020F0070038433060306800F00700B842CE
:1007800001D00120E5E72878400705D56068E968D1
:1007900020F4E060084360602878000706D56068B0
:1007A000296920F4605040EAC100606000F018F848
:1007B0006168084AC1F30311515CC84006490860EA
:1007C00006480068FFF7F8FE0020C2E7002002405C
:1007D00000100240042F0008780000207000002064
:1007E0000E4A51680E4801F00C03042B11D0082B5F
:1007F0000FD10C48C1F38343C903C05C0AD55168CB
:10080000084AC1F34041921E515C054A5043B0FB77
:10081000F1F070470449484370470000001002405F
:1008200000127A00F42E000800093D002DE9F84F6F
:10083000040070D02078C04DC00749D06868C0F36C
:100840008100012807D06868C0F38100022809D11F
:100850006868C00306D52868800339D56068002819
:10086000E7D035E06068B0F5803F0BD010B1B0F54F
:10087000A02F11D0286820F480302860286820F448
:10088000802002E0286840F480302860606890B1E1
:10089000FFF772FE06460AE0286840F480202860D0
:1008A000F0E700BFFFF768FE801B642873D8286854
:1008B0008003F7D50CE0FFF75FFE064605E000BFBA
:1008C000FFF75AFE801B6428F0D828688003F7D40D
:1008D00020789A4E80074FF001094FF0000839D573
:1008E000686810F00C0F07D06868C0F38100022818
:1008F00009D16868C00306D42868800714D5206928
:10090000012808D110E02069B0B1C6F80090FFF7C7
:1009100033FE074605E00AE1FFF72EFEC01B022862
:10092000C4D828688007F7D52868616920F0F800E6
:1009300040EAC10028600DE0C6F80080FFF71CFE09
:10094000074604E0FFF718FEC01B022823D82868DA
:100950008007F7D4207800072CD57948A169D9B150
:10096000C0F80090FFF708FE074604E0FFF704FE1A
:10097000C01B02280FD8686A8007F7D571484FF46A
:10098000FA510068B0FBF1F0009000BF0098411EE2
:100990000091FAD20EE080E0C0F80080FFF7ECFD95
:1009A000074604E0FFF7E8FDC01B022875D8686A17
:1009B0008007F7D42078400760D5E8690027C00099
:1009C00008D4E86940F08050E861E869012700F048
:1009D000805000905C480168C90513D401688346C3
:1009E00041F480710160FFF7C7FD824606E000BF59
:1009F000FFF7C2FDA0EB0A0064284ED8DBF8000028
:100A0000C005F5D5E06801280AD008B1052813D043
:100A1000286A20F001002862286A20F0040002E021
:100A2000286A40F001002862E06841F2883B98B1F2
:100A3000FFF7A2FD82460BE0286A40F0040028621E
:100A4000EEE700BFFFF798FDA0EB0A0159455AD821
:100A5000286A8007F6D50CE0FFF78EFD824605E098
:100A6000FFF78AFDA0EB0A0159454CD8286A800798
:100A7000F6D41FB1E86920F08050E861E06988B3DE
:100A80006968C1F38101022944D00228C6F8608058
:100A900004D0FFF771FD044638E034E0FFF76CFD49
:100AA000074604E0FFF768FDC01B02282BD8286822
:100AB0008001F7D4206AB0F5803F05D16868A1684D
:100AC00020F4003008436860D4E9080108436968ED
:100AD00021F4741108436860C6F86090FFF74CFD7C
:100AE000044606E025E000BFFFF746FD001B022894
:100AF00009D828688001F7D51BE000BFFFF73CFD4F
:100B0000001B022802D90320BDE8F88F2868800165
:100B1000F4D40EE00128F7D06868226A00F480312E
:100B2000914204D1616A00F47010884201D0012022
:100B3000EAE70020E8E7000000100240000042421F
:100B4000800442427800002000700040704700009E
:100B500038B50446006842688168C9434B0606D52B
:100B6000CB0704D1D3435B0601D4216C05E08B078E
:100B700008D4D3431B0605D4616C01B02046BDE800
:100B8000304008478B0601D54B0646D4D3439B061D
:100B900043D44B060AD494F85130032B3ED0636DF6
:100BA00043F004036365C36883680093890609D42E
:100BB000616D41F00101616581680091016821F07A
:100BC00040010160606D002827D02068416821F055
:100BD000E0014160012084F85100900722D0206894
:100BE000416821F003014160104DE06C40B1456364
:100BF000E06CFFF76DFB18B1606D40F04000606580
:100C0000A06C002809D04563A06CFFF761FB0028A9
:100C100003D0606D40F04000606538BDC1688068F9
:100C2000009038BD2046FFF791FF38BD611C0008D9
:100C300070B5040009D0606A002540B12561656186
:100C4000A56294F8510040B10CE0012070BD6068CD
:100C5000B0F5827FF4D0E561F2E784F85050204689
:100C600000F040F8022084F851002068016821F06B
:100C700040010160A088218900F4827001F40441E0
:100C80000843A18901F400610843217C01F00201BD
:100C90000843217D01F001010843218B01F400711B
:100CA0000843217F01F03801084394F8201001F037
:100CB00080010843218D01F4005108432168086038
:100CC000A069042101EA1040216848602068C169D8
:100CD00021F40061C1616565012084F851000020A4
:100CE00070BD000010B586B00024009401940294F9
:100CF000039400682349884241D12348816941F423
:100D000080518161816901F480510491816941F0D0
:100D100004018161816901F004010491816941F05C
:100D2000080181618069694600F0080004904FF471
:100D3000004000901548FFF729FB2820CDE900046A
:100D40000294134C69462046FFF720FB10200090C8
:100D5000022001900320039069462046FFF716FB0E
:100D60000C48416841F0E06141F00101416000221E
:100D700011462320FFF76CFC2320FFF75BFC06B035
:100D800010BD00000030014000100240000801408A
:100D9000000C014000000140F0B490F8515013469F
:100DA00000242246012D01D0022444E08568042657
:100DB0001DB94768B7F5827F16D090F85070012FA3
:100DC00018D0012780F85070B9B1B3B180F85160E4
:100DD000426581638387C38702638286C2864264D9
:100DE000C16861B116490BE080F85160F0BC0A4659
:100DF00000F054B80220F0BC704701241BE01149F8
:100E00000164B5F5004F09D101680B6823F0400378
:100E10000B6001680B6823F480430B6001684B682A
:100E200043F060034B6001680B685B0603D40B68FA
:100E300043F040030B6080F850202046DBE70000C1
:100E4000ED1C00080D1D000870B511490068096807
:100E500088421BD10F4C607801F090FEA4F1600530
:100E600006466866207801F089FE0B49A8668E4226
:100E700000DD6966884200DDA966A078642801D398
:100E8000643800E04042A870E078687070BD0000EF
:100E90007C0000206000002000000243F0B590F8C4
:100EA00050500024012D0CD0012580F8505090F8AE
:100EB000515000264768012D0BD0B7F5827F06D12F
:100EC00001E00220F0BD87680FB9042D01D0022493
:100ED00029E0A9B1A2B19BB190F85150042D02D0E4
:100EE000052580F85150466501638386C386826379
:100EF0008387C387C16829B10D4901640D4904E0A6
:100F0000012410E00C4901640C49416401684A68FD
:100F100042F0E0024A6001680A68520603D40A6897
:100F200042F040020A6080F850602046F0BD0000A8
:100F3000C51A0008251B0008F51A0008551B0008F3
:100F4000704710B5401EB0F1807F01D3012010BD65
:100F50004FF0E02460610F21601701F099F8002044
:100F6000A06107202061002010BD7047704700007D
:100F700070B590F83C20012A26D0012480F83C402E
:100F8000022280F83D2003685A689D6822F07006AE
:100F90000A6832435A600D4B02689A4208D0B2F197
:100FA000804F05D00A4B9A4202D00A4B9A4204D194
:100FB000496825F080031943916080F83D40002185
:100FC00080F83C10084670BD022070BD002C014026
:100FD000000400400008004010B5040003D094F85D
:100FE0003D0010B107E0012010BD002084F83C0056
:100FF000204600F01FF8022084F83D00211D2068E3
:1010000000F02AFF012084F8460084F83E0084F8AE
:101010003F0084F8400084F8410084F8420084F8DE
:10102000430084F8440084F8450084F83D00002023
:1010300010BD000008B500680B49884212D10B486A
:10104000C16941F00201C161C069002200F00200E3
:10105000009011461D20FFF7FBFABDE808401D2057
:10106000FFF7E8BA08BD000000040040001002408D
:1010700070B5044690F83C000025012817D00126E1
:1010800084F83C60022084F83D002068826822F0E9
:10109000770222F47F4282600868502838D00DDC45
:1010A00020284FD005DC90B3102811D14AE002204F
:1010B00070BD302846D040280AD13BE060282FD0B0
:1010C00070280DD0B0F5805F03D0B0F5005F12D06E
:1010D000012584F83D60002084F83C00284670BD5E
:1010E000CB68D1E90121206800F0F9FE2068816811
:1010F00041F0770109E0CB68D1E90121206800F0D7
:10110000EEFE2068816841F480418160E1E719E0EA
:10111000CA684968206800F097FF5021206806E0FF
:10112000CA684968206800F0A0FF6021206800F0CC
:10113000E0FECEE7CA684968206800F085FF4021DC
:101140002068F4E7226801461046F0E72DE9F041F7
:101150000D46040003D094F83D0018B108E00120CA
:10116000BDE8F081002084F83C00204600F040F803
:10117000022084F83D002068816844F20702914310
:101180008160211D206800F067FE226890689169E7
:10119000166A2B68AF69034340F20330814341EA8A
:1011A0000721A868EF6908434FF6FC418843E968C6
:1011B00040EA0720014328692F6A000140EA07300E
:1011C000084369686D6926F0220646EA0515294339
:1011D00093602268906154F8460B0162012004F884
:1011E0001F09E0752076E0762077A0750020B7E72C
:1011F00000B585B0002100910191029103911B4A35
:1012000001681B48914215D1816941F400618161F7
:10121000816901F400610491816941F004018161F7
:101220008069694600F0040004904FF4407000901B
:10123000104816E0104A914215D1C16941F00401ED
:10124000C161C16901F004010491816941F00801A3
:1012500081618069694600F008000490C020009018
:101260000648FFF793F805B000BD0000002C0140D0
:10127000001002400008014000080040000C01403E
:1012800070B590F83E60044690F83F5090F84230B8
:1012900090F84320022021B104290ED0012E1BD149
:1012A00014E0012E18D1012B16D184F83E0084F8E9
:1012B000420001220021206820E0012D0CD1012AEA
:1012C0000AD184F83F0084F8430014E0012D03D1D3
:1012D000012B01D1012A01D0012070BD84F83E000C
:1012E00084F83F0084F8420084F843000122002182
:1012F000206800F0E7FD01220421206800F0E2FDF3
:101300002068016841F001010160002070BD704754
:1013100070B50446006801694FF00005C9438907AC
:1013200015D4C168C943890711D4E91E01610120A0
:101330002077206880698007204602D0FFF7E7FF0A
:1013400004E000F0D9F8204600F07CF92577206809
:101350000169C943490717D4C168C943490713D470
:101360006FF004010161022020772068806910F489
:10137000407F204602D0FFF7CAFF04E000F0BCF82F
:10138000204600F05FF9257720680169C943090705
:1013900016D4C168C943090712D46FF0080101616E
:1013A000042020772068C0698007204602D0FFF71C
:1013B000AEFF04E000F0A0F8204600F043F92577E6
:1013C00020680169C943C90617D4C168C943C90661
:1013D00013D46FF010010161082020772068C069E4
:1013E00010F4407F204602D0FFF791FF04E000F0A8
:1013F00083F8204600F026F9257720680169C94363
:10140000C90708D1C168C943C90704D1891E016150
:10141000204600F067F920680169C943090609D42C
:10142000C168C943090605D46FF0800101612046F7
:10143000FFF79BFD20680169C943490609D4C168CB
:10144000C943490605D46FF040010161204600F010
:101450004AF920680169C94389060BD4C168C943A8
:10146000890607D46FF0200101612046BDE8704075
:10147000FFF77CBD70BD000010B586B00021009163
:101480000191029103910068B0F1804F2AD1164872
:10149000816941F004018161816901F004010491D5
:1014A000816941F0080181618069022400F008002F
:1014B00004900120CDE9000469460C480394FEF72E
:1014C00065FFA002CDE90004694609480394FEF7D0
:1014D0005DFF0848416821F4407141F0E06141F44A
:1014E0000071416006B010BD0010024000080140CC
:1014F000000C014000000140704770B5044690F8B0
:101500003C0000260D4601280FD0012084F83C0045
:101510006AB1042A1DD0082A2FD00C2A3FD00126F8
:10152000002084F83C00304670BD022070BD206869
:1015300000F0E8FC2068816941F0080181612068C1
:10154000816921F004018161206881692A69114360
:1015500011E0206800F0FEFC2068816941F4006120
:1015600081612068816921F48061816120688169DD
:101570002A6941EA02218161D2E7206800F016FD64
:101580002068C16941F00801C1612068C16921F08A
:101590000401C1612068C1692A69114311E0206812
:1015A00000F030FD2068C16941F40061C16120682C
:1015B000C16921F48061C1612068C1692A6941EA79
:1015C0000221C161ACE710B5040003D094F83D00DE
:1015D00010B107E0012010BD002084F83C00204637
:1015E00000F01EF8022084F83D00211D206800F064
:1015F00033FC012084F8460084F83E0084F83F0064
:1016000084F8400084F8410084F8420084F84300E4
:1016100084F8440084F8450084F83D00002010BDA3
:1016200008B50068B0F1804F08D10548C16941F0A4
:101630000101C161C06900F00100009008BD000017
:10164000001002407047000010B50446022249B164
:1016500004290ED0082913D094F84100012816D08F
:10166000012010BD94F83E000128F9D184F83E20F5
:101670000FE094F83F000128F2D184F83F2008E001
:1016800094F840000128EBD184F8402001E084F870
:1016900041200122206800F015FC0F492068884293
:1016A00003D1426C42F4004242642068884208D070
:1016B000B0F1804F05D00949884202D008498842DC
:1016C00004D1816801F00701062903D0016841F0C7
:1016D00001010160002010BD002C01400004004009
:1016E0000008004070477047FEE700002DE9F04316
:1016F00085B00024214800940194029403948169E8
:1017000041F020018161816901F02001049181692A
:1017100041F004018161816901F004010491816952
:1017200041F0080181618069DFF8548000F0080011
:1017300004900022C0214046FEF718FFDFF84490D5
:1017400040F20347002239464846FEF70FFFC0200B
:1017500001250226CDE90005CDE90246694640464D
:10176000FEF714FE00970396CDE9015469464846FA
:10177000FEF70CFE05B0BDE8F0830000001002404B
:1017800000080140000C01400C4810B50A490160F6
:10179000002141608160C16001614161816101623C
:1017A000416281620A21C162FFF742FA002801D03A
:1017B00072B6FEE710BD0000003001407C00002042
:1017C00010B58CB024216846FEF7FEFC00241648B4
:1017D000099414490A94C0E900144FF6FF71C0E956
:1017E00002410461446184610320CDE900040120C9
:1017F000CDE902040494CDE90540079469460A48FE
:101800000894FFF7A3FC08B172B6FEE7099409A992
:1018100005480A94FFF7ACFB002801D072B6FEE73A
:101820000CB010BD002C0140D400002010B58AB0CF
:10183000002407941C2168460894FEF7C5FC1A484A
:101840004FF0804101604721C0E9011440F2E731C7
:10185000C0E903148461FFF7B6FE08B172B6FEE773
:10186000079407A910480894FFF782FB08B172B6E5
:10187000FEE76020CDE900040294002269460A4890
:101880000494FFF73AFE08B172B6FEE70C226946EF
:101890000548FFF732FE08B172B6FEE70248FFF7CF
:1018A000EBFD0AB010BD00001C01002010B586B091
:1018B000002417480094019402940394049413495B
:1018C000059401604721C0E9011442F20F71C0E99B
:1018D00003148461FFF780FB08B172B6FEE74FF492
:1018E0008050009069460A48FFF7C2FB08B172B603
:1018F000FEE7049404A906480594FFF739FB002885
:1019000001D072B6FEE706B010BD00000004004032
:101910006401002010B58CB024216846FEF754FC09
:1019200000241648099414490A94C0E900144FF69B
:10193000FF71C0E90241046184610320CDE9000424
:101940000120CDE902040494CDE9054007946946DD
:101950000A480894FFF7FAFB08B172B6FEE709944B
:1019600009A906480A94FFF703FB002801D072B6C4
:10197000FEE70CB010BD000000080040AC010020E4
:10198000FEE7FEE72DE9F047214CE56A2563616932
:10199000884601F039FAE062E1690746894601F0BC
:1019A00035F9616B00F066FF0646606329463846EC
:1019B00001F02AFAA16A01F029F9494600F0C8FFAE
:1019C00005463146606A01F021F906463946206A2B
:1019D00001F01CF9314600F04DFF294600F04AFFA6
:1019E0000146A063404600F045FF0A4D294601F03C
:1019F0000DF9094900F0ACFFA065A84202DDA5651C
:101A0000BDE8F08710F1FF4FFAD30020A065F7E79B
:101A10000000002000007A44000002432DE9F04756
:101A2000214CA56CE564A169884601F0EDF9A0643C
:101A3000E1690746894601F0E9F8216D00F01AFFD7
:101A4000064620652946384601F0DEF9616C01F052
:101A5000DDF8494600F07CFF05463146206C01F078
:101A6000D5F806463946E06B01F0D0F8314600F073
:101A700001FF294600F0FEFE01466065404600F089
:101A8000F9FE0A4D294601F0C1F8094900F060FF4E
:101A9000E065A84202DDE565BDE8F08710F1FF4F83
:101AA000FAD30020E065F7E70000002000007A4448
:101AB00000000243704700000148FFF749B80000EA
:101AC0007C0000200168C968826B1180816B891CD1
:101AD0008163C18F491EC187C18F002909D1016867
:101AE0004A6822F040024A60C18E002901D100F00C
:101AF00049B870470168097B826B1170816B491C82
:101B00008163C18F491EC187C18F002909D1016836
:101B10004A6822F060024A60C18E002901D100F0BB
:101B200031B87047016B02680988D160016B891C6C
:101B30000163C18E491EC186C18E002909D1016889
:101B40004A6822F080024A60C18F002901D100F06A
:101B500019B87047016B026809781173016B491C51
:101B60000163C18E491EC186C18E002909D1016859
:101B70004A6822F080024A60C18F002901D100F03A
:101B800001B8704738B50446214845F6C051006891
:101B9000B0FBF1F0642148430090FEF7EDFC0246F3
:101BA0002068416821F020014160009888B1401E02
:101BB0000090206880688007F7D56421204600F0F7
:101BC00085F818B1606D40F020006065A06828B10C
:101BD00008E0606D40F020006065EEE72068C168B5
:101BE00080680090616D012029B184F85100204681
:101BF000FEF7ACFF38BD94F8511084F85100042969
:101C0000204602D0FFF79CF938BDFFF71DF938BD1B
:101C10007800002038B504460068416821F0600172
:101C20004160FEF7A9FC02466421204600F020F83E
:101C300018B1606D40F020006065A06818B9206898
:101C4000C16880680090012084F85100606D002810
:101C5000204602D0FEF77AFF38BDFFF7F5F838BD11
:101C600010B5406A0021C187C186FEF76FFF10BD25
:101C7000F8B5044640684FF48273984217D1A068C3
:101C80004FF48065B0F5004F01D0A8420FD1206815
:101C9000066826F0400606606068984207D1A06892
:101CA000A84204D100920B460022012103E00092D9
:101CB0000B4600228021204600F038F8002804D08E
:101CC000606D40F0200060650320F8BD38B50B461C
:101CD000009204460022802100F028F8002804D059
:101CE000606D40F020006065032038BD0168C96860
:101CF000826B1180816B891C8163C18F491EC187F2
:101D0000C18F002901D1FFF785BF70470168097BAA
:101D1000826B1170816B491C8163C18F491EC18721
:101D2000C18F002901D1FFF775BF70472DE9F84336
:101D30001E46914688460446089DFEF71DFC401B42
:101D4000351AFEF719FC074625480068C0F3CB306A
:101D5000684338E0701C37D0FEF70EFCC01BA84269
:101D600003D215B1009860B32CE02068416821F0DF
:101D7000E00141606068B0F5827F0BD1A068B0F5EA
:101D8000004F02D0B0F5806F04D12068016821F0C7
:101D900040010160A06AB0F5005F09D120680168C8
:101DA00021F4005101602068016841F40051016094
:101DB000012084F85100002084F850000320BDE881
:101DC000F8830025401E00902068816838EA0100F1
:101DD00004D000214945BDD10020F0E70121F9E7F9
:101DE000780000207047FEF7CDBB30B58FB02821BA
:101DF0006846FEF7E9F914210AA8FEF7E5F9012182
:101E00000804CDE900100024029402250491CDE9D4
:101E100007504FF4E01009906846FEF707FD08B13F
:101E200072B6FEE70F20CDE90A054FF48060CDE9D8
:101E30000C4002210AA80E94FEF73CFC002801D0B9
:101E400072B6FEE70FB030BD704700000148FFF7E3
:101E50005FBA000064010020F0B50268164B174C11
:101E6000174D4FF08047984205D0B84203D0A042AA
:101E700001D0A84203D122F070064A68324398424A
:101E800005D0B84203D0A04201D0A84203D122F429
:101E90004074CA6822434C6922F0800222430260E7
:101EA0008A68C2620A688262984201D10969016344
:101EB00001214161F0BD0000002C01400004004000
:101EC0000008004010B501F01F030121046A994089
:101ED0008C430462016A9A401143016210BD10B53F
:101EE000846842EA032224F47F440A432243826046
:101EF00010BD826822F070020A4342F0070181603F
:101F00007047000030B5036A026A22F001020262E3
:101F10004268846924F073050C682C4323F00205A1
:101F20008B682B430A4DA8420BD123F00805CB68E0
:101F300022F440722B434D6923F0040315438A6950
:101F40002A434260846149684163036230BD0000F6
:101F5000002C014030B5026A036A23F010030362CB
:101F6000436884690D6824F4E64444EA05248D68D6
:101F700022F0200242EA05120B4DA8420ED1CD6894
:101F800022F0800242EA05124D6923F4406343EADD
:101F900085038D6922F0400243EA85034360846132
:101FA00049688163026230BD002C014030B5036A8C
:101FB000026A22F4807202624268C46923F40073E8
:101FC00024F073050C682C438D6843EA05230C4DFF
:101FD000A8420ED1CD6823F4006343EA05234D697E
:101FE00022F4405242EA05128D6923F4806342EAEA
:101FF00005124260C4614968C163036230BD0000DC
:10200000002C014030B5046A026A22F48052026258
:102010004268C3690D6823F4E64343EA05238D68EB
:1020200024F4005444EA0534064DA84204D14D6915
:1020300022F4804242EA85124260C3614968016429
:10204000046230BD002C014010B5036A046A24F01C
:1020500001040462846924F0F00444EA021423F0C9
:102060000A020A438461026210BD10B5036A046A61
:1020700024F010040462846923F0A00324F4704463
:1020800044EA023243EA01118261016210BDFEE7B7
:102090000907090E002804DB00F1E02080F8001495
:1020A000704700F00F0000F1E02080F8141D704729
:1020B00070B5114E0C460546012211463046FEF71A
:1020C00055FA002231153046FEF750FA012202215E
:1020D0003046FEF74BFA094E002240213046FEF70B
:1020E00045FA012280213046FEF740FA0448016893
:1020F0000D640068446370BD000C0140000801409D
:102100001C010020FEF746FAFFF76FFEFFF7EEFA1C
:10211000FFF73AFBFFF754FBFFF788FBFFF7C6FB1F
:10212000FFF7F8FB00215448FFF7AAF804215248B2
:10213000FFF7A6F850480021D838FFF7A1F84E481D
:102140000421D838FFF79CF84B4800219038FFF75E
:102150007BFA49480C219038FFF776FA464E474CF7
:10216000A6F1D8074FF001084FF4C879A068606065
:102170002069E0600A20FEF7F7F83868406AA0603E
:102180003068406A3D492061042260313C48FEF7D6
:1021900003FE2078401C10F0FF00207003D00020C8
:1021A000606320652070A06800F0E8FC0546606868
:1021B00000F0E4FC294600F06DF86061206900F051
:1021C000DDFC0546E06800F0D9FC294600F062F825
:1021D000A0616078D8B101281CD002282CD0042836
:1021E00044D00328C2D14D4649464FF4487000BF41
:1021F000FFF75EFF2846FEF7B7F82049042260315A
:102200001F48FEF7C9FD00BF84F80180AEE700F06B
:1022100039F8ABE7606EFFF7B5FBA06EFFF7FEFB8A
:10222000E06D00F08BFC85B2A06D00F087FC80B201
:102230002946FFF73DFF99E7FEF72BF80F490422E7
:1022400060310F48FEF7A8FD606EFFF79BFBA06EA4
:10225000FFF7E4FBE06D00F071FC85B2A06D00F0CB
:102260006DFC80B22946FFF723FFCDE74FF42F71B5
:102270004D464846BCE70000AC01002000000020AD
:102280007C000020002201210148FEF76FB9000008
:10229000000C01402DE9F0470F4606464FF066342A
:1022A000164DDFF85C80DFF85C9000F07BFD39466E
:1022B000304602D200F0A8FD10E000F00BFC01D186
:1022C000002418E03946304600F06CFC13D2394641
:1022D0000D4800F099FD314600F0CCFA00F09EFA6E
:1022E00022462B4600F044F842464B4600F098F94F
:1022F00000F00CF804462046BDE8F0876666F23F21
:102300003D0AD7A3703D084000FF7F4721F00042FF
:10231000A2F16052B2F5801F01F0004328BFD2F154
:102320007F6C0BD95FEA001C43EAC20242EB50709B
:1023300018BF704728BF20F001007047B2F5801F1A
:10234000BCBF184670474FEA410C1CF5001F02D273
:10235000084600F022BD70B500F00CFA00000089BC
:10236000FFF7F6BF4FF00040A0F580007047000077
:102370002DE9C04130B4DFF8A0C23CEA111418BF07
:102380003CEA131400F0EC8081EA03051CEA111406
:1023900044EAD57418BF1CEA131500F0C780A4EBFB
:1023A00005044FF0004545EAC12145EAC32341EA4F
:1023B000505143EA525304F17F74994204F50034BA
:1023C0004FEAC0204FEAC22208BF904200F09C8032
:1023D0004FEA13650FF24016765D4FEA134506FB90
:1023E00005F7C7F1807706FB07F74FEAD737A7FB5A
:1023F00003687642C8F58038A7FB06CE38BFA8F13F
:10240000010807FB08E64FF0000EA6FB028CE6FB76
:1024100003CEDCF1000CCEF1004E38BFAEF1010E60
:10242000A6FB0C584FF000074FF00005E6FB0E87A7
:10243000A1FB08C6A0FB07CE16EB0E0645F1000572
:10244000E1FB076515F1E04E7EBFA4F580345FEA3D
:1024500046066D4116F1800745F100054FEA172742
:102460004FEA066647EA0567A6F1DE46B6F1805FE9
:102470004FEA15251FD9384624F0010C05EBC4712D
:10248000BCF1FE6F01EB0C1102D8F0BCBDE800817D
:1024900024425CBF01F5801E9EEAC47F02D4F0BCDA
:1024A000BDE80081244238D4F0BCA1F1C041BDE8B0
:1024B000004100F0ADB94FEAD22242EA43524FEA5E
:1024C000D323A7FB02864FEAD02040EA415007FB06
:1024D00003661EEA0E0F4FEAD12105FB026658BFC4
:1024E000A6EB0056B6EB00564FEA520E4EEAC37EFC
:1024F00018EB0E0E56EB530EBDD518EB02085E41DD
:102500007F1C55F10005B6E74FF480154FF000072A
:102510004FF000064FF00008ADE7F0BC4FF00000B0
:1025200001F1C04101F00041BDE8008111EA0C1F3A
:102530000CEA131500D00CE013EA0C1F00F0258004
:102540004FF00000F0BC81EA030101F00041BDE85A
:102550000081F0BCBDE8004181EA030100F058B9F8
:10256000F0BCBDE8004170B500F004F9097EFC3E06
:1025700000F007B881EA03014FF0000001F00041CC
:10258000704781EA030100F043B9F0BCBDE80041A7
:102590004FF0000021497047FFFDFBF9F7F5F4F219
:1025A000F0EEEDEBE9E8E6E4E3E1E0DEDDDBDAD8EE
:1025B000D7D5D4D3D1D0CFCDCCCBCAC8C7C6C5C44C
:1025C000C2C1C0BFBEBDBCBBBAB9B8B7B6B5B4B363
:1025D000B2B1B0AFAEADACABAAA9A8A8A7A6A5A44E
:1025E000A3A3A2A1A09F9F9E9D9C9C9B9A99999812
:1025F0009797969595949393929191908F8F8E8EB5
:102600008D8C8C8B8B8A8989888887878685858441
:1026100084838382828181800000FF070000F87F2D
:10262000DFF848C170B51CEA111E1EBF1CEA131565
:102630009EEA0C0F95EA0C0F00F06F8081EA03040C
:1026400023EA4C134EEAD47E21EA4C1141F4801166
:1026500043F48013AE44A1FB024CA0FB0365AEF132
:102660007F7E361955EB0C05A1FB034C4CF10003A2
:10267000A0FB021C16EB0C06654153F10003094256
:1026800018BF46F0010613F4007F0BD14FEA033167
:102690004FEA0530340341EA155140EA16506FF015
:1026A00003020AE04FEAC3214FEAC520F40241EADF
:1026B000555140EA56506FF0020202EB2E4201EBF8
:1026C000025585EACE710AD05FEA440C18BF24F0A7
:1026D000004450F1000041F1000120EAD47040F2C2
:1026E000FE7C624500D270BDA84214BF4FF080440A
:1026F0004FF04044002E08BF0024BEF1806FA8BFF9
:10270000A1F1C041BDE8704080F282804FF000002E
:1027100001F1C04101F0004170479EEA0C0F0CEA44
:10272000131518BF95EA0C0F06D04FF0000081EA90
:10273000030E0EF0004170BD00F01CF88900013E50
:1027400000F007B800F009B84FEA430C5FEA5C5CA0
:1027500008D081EA030100F05BB84FEA410C5FEA60
:102760005C5CF6D14FF00000014970470000FF07A4
:102770000000F87F0EF1020E2EF0030E5EF8046BDF
:10278000364205D4012A43EB030515F5001F12D884
:10279000012841EB010C1CF5001F0CD80ED14FEAAB
:1027A000D17C15F5001F0CEB4C0C0CF1020C08BF92
:1027B0004CEBD37C04E04FF0080C01E04FEAD37CF3
:1027C0000CEB4C0526FA05F606F00706B6F1040CEC
:1027D00006D20EEB860CBDE870404CF0010C604751
:1027E000DFE80CF0090B02024FF000414FF000004F
:1027F000A1F5002170BD19461046012851EB0104D6
:1028000018BFD4F5001484BF002001F0004170BD52
:102810000808A0F500114FEA3101704743004FEA64
:10282000D30C4FEA3C0C43401FBF40070CF16051F2
:1028300013F0FE4F70471CF0006F03D100200CF026
:10284000004170470CF0004343EA507010B540EA75
:10285000CC0000F05CFA00BF000000924FEA0001DB
:10286000FFF7D6BF4FF000414FF00000A1F5002167
:102870007047000090EA010F48BF81F0004100F16D
:10288000CA82421A3CBF801A89184FEAD0524FF0D0
:102890007F4C1CEA410FA2EBD15318BF9CEA026F98
:1028A00000F03B804FF0004C4CEA00204CEA012144
:1028B00021FA03FC10EB0C0C1ED202F1FF325FEA8E
:1028C0001C2040EBC25038BF70471CF07F0F4FEA0E
:1028D000400C18BFBCF17F4F38BF7047C3F12003D5
:1028E000994008BF20F00100BCF17F4F38BF70470E
:1028F000A0F1C04000F051BA4FEA3C00000A40EBA2
:10290000C25028BF1CF0FF0F4FEA400CE6D018BFA2
:10291000BCF17F4F38BF7047EAE79CEA026F05D0F1
:1029200010EA5C0F08BF00F00040704710B500F0DF
:10293000EEF900BF64FBBE3E401058BFC0F14040FE
:10294000491058BFC1F140418142EFF30080704708
:102950004FF47F0C1CEAD0121EBF1CEAD11392EA7E
:102960000C0F93EA0C0F00F0858090EA010F48BF2E
:1029700042F4807240F4000C41F400002CF07F41DE
:1029800020F07F4000B58142A2EB03020FF2081C49
:10299000ACEB504EC0F100009EF800E04FEA4E0E46
:1029A00000FB0EFC38BF49004FEA2C1C02F5FA026E
:1029B0000CFB0EF34FEACE1E4FEA112C4FEAC12159
:1029C0000EEB635E42EB22420EFB0CFC4FEA1C5303
:1029D00000FB03114FEA112C4FEA01310EFB0CFCF6
:1029E0004FEADC4C00FB0C11C14228BF09184CEB2C
:1029F00003335DF804EB10EB410143EBC250B2F539
:102A00007C0F38BF704729D512F0F00F1CBF00F1C2
:102A1000C04000F000407047008182838485868733
:102A200088898B8C8D8E8F919293959697999A9C8D
:102A30009D9FA0A2A3A5A7A8AAACAEB0B2B3B5B7FC
:102A4000B9BCBEC0C2C5C7C9CCCED1D4D7D9DCDFD2
:102A5000E2E6E9ECF0F3F7FAFE0000004FEA400C82
:102A60000CF1807CBCF17E4F28BF7047B0F1C040B4
:102A700000F093B990EA010F0CEAD11348BF42F479
:102A80008072624538BF634507D213F47F0F16D0BA
:102A900080EA010000F00040704710B500F037F9FF
:102AA000097EFC3E00F005B880EA010000F000401D
:102AB000704780EA010000F0004000F06EB912F4A7
:102AC0007F0F04BF0248704780EA010000F065B93B
:102AD0000000C07F50EA010C00F113801CF5000FCC
:102AE00058BFBCF5000F01D48842704707D710F5D6
:102AF000000F58BF11F5000F15D488427047894266
:102B000070471CF5000F04D5BCF5000FF7D58142C6
:102B100070474FF0807C1CEB400F38BF1CEB410F1F
:102B200001D28142704710B500F0F1F892244900BB
:102B30004FF000504FF08051FFF7FEBEC10DD1F1B4
:102B40009E0206DB4FEA002343F0004323FA02F023
:102B50007047004207D54FEA4001B1F1FE4F02D263
:102B60004FF00000704710B500F0D1F84992248072
:102B7000002070476FEA200070470000B0FA80F331
:102B800010FA03F2C3F19D030AD0D90501EB12201C
:102B9000530638BF704700F1010008BF20F0010064
:102BA0007047000050EA010C00F113801CF5000F83
:102BB00058BFBCF5000F01D48842704707D710F505
:102BC000000F58BF11F5000F15D488427047894295
:102BD00070471CF5000F04D5BCF5000FF7D58142F6
:102BE00070474FF0807C1CEB400F38BF1CEB410F4F
:102BF00001D28142704710B500F089F89224490053
:102C00004FF000504FF08051FFF796BE4FF47F0C0D
:102C10001CEAD0121EBF1CEAD11392EA0C0F93EAF1
:102C20000C0F00F0478090EA010F48BF42F4807219
:102C30004FF0004C4CEA00204CEA012102EB030269
:102C4000A0FB0113A2F50002002918BF43F0010305
:102C50005B0028BF4FEA330342EB22425FEA132CAA
:102C60004CEBC2502EBFBCEB436FB2F57C0F7047EC
:102C70004FEA036CBCF1004F08BF20F00100B2F531
:102C80007C0F38BF70470BD582F0FF0212F5803FF2
:102C9000C8BF704700F1C040D8BF00F00040704787
:102CA00000F5000C5FEA4C0C48BF7047B0F1C04023
:102CB00000F073B890EA010F0CEAD11348BF42F458
:102CC0008072624538BF634504D280EA010000F09B
:102CD0000040704710B500F01AF800BF8900013EAF
:102CE00000F007B800F009B85FEA410C5FEA1C6C1D
:102CF00008D080EA010000F050B85FEA400C5FEABB
:102D00001C6CF6D14FF00040A0F5800070470EF12A
:102D1000020E2EF0030E5EF8044B244204D44FEA58
:102D20004102B2F17F4F11D84FEA4003B3F17F4F18
:102D30000CD80ED14FEAD07CB2F17F4F0CEB4C0C8B
:102D40000CF1020C08BF4CEBD17C04E04FF0080CF6
:102D500001E04FEAD17C0CEB4C0324FA03F404F0BD
:102D60000704B4F1040C06D20EEB840CBDE810404D
:102D70004CF0010C6047DFE80CF0070802024FF04E
:102D80000040A0F5800010BD0846420018BFD2F1F7
:102D9000807288BF00F0004010BDFF2141EAD05092
:102DA000C005704751EA000C00F113801CF5000FBC
:102DB00058BFBCF5000F01D48142704707D711F509
:102DC000000F58BF10F5000F15D48142704789429B
:102DD00070471CF5000F04D5BCF5000FF7D58842ED
:102DE00070474FF0807C1CEB410F38BF1CEB400F4D
:102DF00001D28842704780EA010081EA000180EA3E
:102E00000100FFF7F8BE000090EA010F48BF81F013
:102E100000413FF536AD421A04D882F00042A0EBE3
:102E2000020011444FEAD0524FF07F4C1CEA410F90
:102E3000A2EBD15318BF9CEA026F4AD04FF0004C6E
:102E40004CEA00204CEA012121FA03FCB0EB0C0C07
:102E50000FD412F0FE0F36D05FEA4C001DD50012E1
:102E600040EBC25038BF70471CF03F0F18BF70478F
:102E70000BE0A2F101025FEA1C2040EBC25038BF18
:102E800070471CF07F0F18BF7047C3F120039940B3
:102E900014BF401E20F00100704780084FEA122343
:102EA00008BF7047B0FA80FCA2EB0C02CCF1280CF2
:102EB00060FA0CF093EA122F04BF00EBC250704787
:102EC0004FEAC3707047130A5FEADC1008BF70470F
:102ED000F6E79CEA026F04D010EA5C0F08BF0020FE
:102EE000704710B5FFF713FF40DFF63E81F000405A
:102EF0007047010202030405060708090A0B0C0DBE
:102F00000E0F10100000000000000000010203047A
:102F100006070809342F0008000000207C0000008C
:102F200028010008B02F00087C000020DC0700000A
:102F30004401000800000000000000000000000044
:102F40000000000000000000000000000000000081
:102F50000AD7233C3333B33E0000A44100000000F5
:102F60000000000000000000000000000000000061
:102F70009A99993E0000784100000000000000008E
:102F80000000000000000000000000000000000041
:102F90000000000000000000000000000000000031
:102FA0000100000010000000000000000024F400F8
:04000005080000ED02
:00000001FF
